:020000040000FA
:100000002828A301A200FF30A207031CA307031C9A
:1000100023280330A100DF300F200328A101E83E90
:10002000A000A109FC30031C1828A00703181528FC
:10003000A0076400A10F152820181E28A01C222844
:1000400000002228080083130313831264000800B1
:10005000831686018312213086000130A300F4301C
:100060000220223086000130A300F43002200C3040
:1000700086000130A300F4300220143086000130E5
:0C008000A300F43002202B286300442869
:02400E006D3F04
:00000001FF
