:020000040000FA
:100000003828A301A200FF30A207031CA307031C8A
:1000100033280330A100DF300F200328A101E83E80
:10002000A000A109FC30031C1828A00703181528FC
:10003000A0076400A10F152820181E28A01C222844
:100040000000222808000310A00DA10DFF3E031898
:100050002328200833280310A10CA00CFF3E03180E
:100060002B2820083328831303138312640008000D
:1000700007309F00831686018312013086006400DA
:10008000851C43283F280130B8006400083038023E
:10009000031852280310860D0130A3002C300220D3
:1000A000B80F452886178316861383126400051D32
:1000B0005A2856280130B800640008303802031866
:1000C00069280310860C0130A3002C300220B80FE1
:1000D0005C2806148316061083123F2863006E28DE
:02400E006D3F04
:00000001FF
