:020000040000FA
:10000000B201F628B4008417800484133230A600AD
:100010000030A700D620A00AA50AA201A30100086B
:100020003405A600640000083405A700260627054D
:1000300034060319A20A0319A30A2708A600A40379
:100040000319A5030319A00B12282208F12804089C
:10005000A7008611051205128316861105120512D6
:10006000F030850583122708B21853283A30A100D2
:10007000FC30A6203330A60068201030A100683084
:10008000A62068206430A5202230A60068202830F1
:1000900052200C3052200130522006305220B2142F
:1000A000270853283214A600321C61280512033C8D
:1000B000031C662866200730A100D030A620031458
:1000C00008003214FE3C0319F1280516A60E321C56
:1000D00032108615F030850526080F398504861103
:1000E000A60E321868283230A52003140800B31376
:1000F00029080319B3170530A8002730A3001030D2
:100100008D200330A300E8308D20A30164308D20C2
:10011000A3010A308D2024089428A2002508A100FC
:100120002408A000BA202008A000A8030319B313D4
:10013000290803199E282802031808002008031D17
:10014000B313B31B0800303EEC28A101E83EA00029
:10015000A109FC30031CAF28A0070318AC28A00796
:100160006400A10FAC282018B528A01CB9280000F5
:10017000B9280800A501A4011030A600210DA40D86
:10018000A50D2208A4022308031C230FA5020318AF
:10019000D0282208A40723080318230FA50703105B
:1001A000A00DA10DA60BBE282008F1281030A80034
:1001B000A101A001A70CA60C031CE4282208A0079B
:1001C00023080318230FA107A10CA00CA50CA40C55
:1001D000A80BDA282408F128840031088A003008A6
:1001E00082008313031383126400080007309F000A
:1001F0001030A2002730A300063084000130022016
:10020000B8002308B900FE30282001302820FE3035
:100210002820823028204C302820613028202030AF
:10022000282046302820723028206530282063306E
:10023000282075302820653028206E302820633033
:10024000282069302820613028202030282065307F
:100250002820733028203A302820FE302820C5304E
:100260002820A9013808A4003908A5002730B000CB
:10027000B101772020302820483028207A302820EB
:02028000F8285C
:02400E00653F0C
:00000001FF
