:020000040000FA
:100000003D28A301A200FF30A207031CA307031C85
:1000100038280330A100DF300F200328A101E83E7B
:10002000A000A109FC30031C1828A00703181528FC
:10003000A0076400A10F152820181E28A01C222844
:10004000000022280800A20001302828A200053064
:10005000A80023082102031D2F28220820020430B3
:1000600003180130031902302805031DFF3038281A
:10007000831303138312640008008316860183121E
:100080002830C600C70183168501831207309F0000
:1000900085010230CA00CB014030B8007930B90088
:1000A0002430BA003030BB001930BC001230BD0023
:1000B0000230BE007830BF00C0011030C1006400C3
:1000C000051963285F28C20A0319C30A0A30A00071
:1000D000A1014308A30042082620031D7428C20181
:1000E000C301C40A0319C50A0A30A000A1014508CA
:1000F000A30044082620031D7F28C401C501013048
:10010000CC00CD014C08A0004D08A1004B08A30075
:100110004A082320031DB2280514831605108312F4
:1001200085108316851083124208383E840000082B
:1001300086004708A3004608022005108316051014
:10014000831285148316851083124408383E840078
:10015000000886004708A30046080220CC0A0319BD
:06016000CD0F82285F288C
:02400E00653F0C
:00000001FF
