:020000040000FA
:100000002828A301A200FF30A207031CA307031C9A
:1000100023280330A100DF300F200328A101E83E90
:10002000A000A109FC30031C1828A00703181528FC
:10003000A0076400A10F152820181E28A01C222844
:1000400000002228080083130313831264000800B1
:10005000831686018312013086000130A300F4303C
:100060000220023086000130A300F4300220043068
:1000700086000130A300F4300220083086000130F1
:10008000A300F4300220043086000130A300F430D5
:100090000220023086000130A300F430022001303B
:1000A00086000130A300F43002208601572810306A
:1000B00086000130A300F430022020308600013099
:1000C000A300F4300220403086000130A300F43059
:1000D0000220803086000130A300F430022028285E
:0600E00008006300712816
:02400E006D3F04
:00000001FF
