:020000040000FA
:100000004F28B4002008210403194A284420A301E2
:10001000A40134091F2084134C202208A3070008E0
:100020003404031C34068000A40A0319A00A03192F
:10003000A10F0C2834081C28841780044A28841730
:1000400080054A28A301A200FF30A207031CA307D2
:10005000031C4A280330A100DF3030202428A101EE
:10006000E83EA000A109FC30031C3928A0070318B2
:100070003628A0076400A10F362820183F28A01CAE
:100080004328000043280800A009A109A00A031979
:10009000A10A0800831303138312640008001930B7
:1000A000B80086158316861183120130A300F43040
:1000B000232086118316861183123808A20003308C
:1000C000A000A101063084000130012086118316B2
:1000D000861164008312861C72286400061D822823
:1000E00039105D286400FA30380203189228640041
:1000F00039185D2886158316861183123914193034
:10010000B8075D2864001A303802031C9228640086
:1001100039185D2886158316861183123914193013
:10012000B8025D2886158316861183125D28630048
:0201300097280E
:02400E00653F0C
:00000001FF
