:020000040000FA
:100000006728A600360884000930A70003100D20D9
:10001000A60CA70B072803140D288413B31D1C2856
:1000200000083404331D34068000841700083404AB
:10003000031C34068000272800083404031C3406FF
:1000400033193406800084173409800527280030CE
:100050008A00330D0639A0003420A10000308A0048
:10006000200A342000004E28383E03188A0A8200F5
:10007000013475340334153400343C340C34D93431
:10008000A301A200FF30A207031CA307031C6228E0
:100090000330A100DF304E204228A101E83EA0003D
:1000A000A109FC30031C5728A00703185428A007F7
:1000B0006400A10F542820185D28A01C61280000AE
:1000C000612808008313031383126400080064008E
:1000D000861C71286400061D7E286400861D8B28FE
:1000E00067280630B6000130B4000430B300413058
:1000F00001200130A300F430412067280630B6000B
:100100000130B4000430B300423001200130A300BC
:10011000F430412067280630B6000130B4000430C6
:10012000B300433001200130A300F43041206728A0
:0401300063009828A8
:02400E00653F0C
:00000001FF
