:020000040000FA
:100000006A2864001120031801281C200830A3006E
:100010001D201120A20C0C28A30B08281D2022084B
:10002000080036088400340884178004841300050F
:1000300033193406FF3E0800331700308A00330DB1
:100040000639A0002F20A10000308A00200A2F20AE
:10005000331F49283313A000023060204928333E63
:1000600003188A0A820001347534033415340034CD
:100070003C340C34D934A301A200FF30A207031C86
:10008000A307031C65280330A100DF3049203D2869
:10009000A101E83EA000A109FC30031C5228A007E2
:1000A00003184F28A0076400A10F4F2820185828D4
:1000B000A01C5C2800005C2808000310A10CA00C08
:1000C000FF3E03185D28200865288313031383125D
:1000D0006400080086148316861083120130A30082
:1000E000F4303C2086108316861083120630B6004A
:1000F0000130B4000430B3000120B80064003808B7
:10010000413C031D8B28861483168610831203300E
:10011000A300E8303C2064003808423C031D9828C6
:1001200006158316061183120330A300E8303C2025
:1001300064003808433C031DA528861583168611E4
:1001400083120330A300E8303C208610831686100B
:1001500083120611831606118312861183168611E7
:08016000831276286300B22827
:02400E00653F0C
:00000001FF
