:020000040000FA
:10000000B201F528B4008417800484133230A600AE
:100010000030A700D520A00AA50AA201A30100086C
:100020003405A600640000083405A700260627054D
:1000300034060319A20A0319A30A2708A600A40379
:100040000319A5030319A00B12282208F02804089D
:10005000A7000611861086108316061186108610DA
:100060000F30860583122708B21853283A30A100B2
:10007000FC30A5203330A60067201030A100683086
:10008000A52067206430A4202230A60067202830F5
:1000900052200C3052200130522006305220B2142F
:1000A000270853283214A600321C61288610033C0E
:1000B000031C662866200730A100D030A520031459
:1000C00008003214FE3C0319F0288614321C32104A
:1000D00006150F3086052608F03986040611A60E8F
:1000E000321867283230A42003140800B3132908FB
:1000F0000319B3170530A8002730A30010308C2057
:100100000330A300E8308C20A30164308C20A301CD
:100110000A308C2024089328A2002508A100240876
:10012000A000B9202008A000A8030319B3132908D0
:1001300003199D282802031808002008031DB31383
:10014000B31B0800303EEB28A101E83EA000A10946
:10015000FC30031CAE28A0070318AB28A0076400DE
:10016000A10FAB282018B428A01CB8280000B8287C
:100170000800A501A4011030A600210DA40DA50DB5
:100180002208A4022308031C230FA5020318CF286A
:100190002208A40723080318230FA5070310A00DA6
:1001A000A10DA60BBD282008F0281030A800A10141
:1001B000A001A70CA60C031CE3282208A007230813
:1001C0000318230FA107A10CA00CA50CA40CA80BCD
:1001D000D9282408F028840031088A0030088200D9
:1001E0008313031383126400080007309F00E83074
:1001F000A2000330A3000630840001300220B800C2
:100200002308B9003808A6003908A7003C30A2002E
:10021000A301D520B8002508B900FE302820013000
:1002200028204D3028206F302820743028206F304F
:10023000282072302820203028206730282069307C
:10024000282072302820613028206E302820643029
:1002500028206F30282020302820613028203A3094
:100260002820FE302820C3302820A9013808A40007
:100270003908A5002730B000B1017620FE302820D3
:10028000C930282052302820503028204D302820D6
:06029000F7286300492974
:02400E00653F0C
:00000001FF
