:020000040000FA
:100000002828A301A200FF30A207031CA307031C9A
:1000100023280330A100DF300F200328A101E83E90
:10002000A000A109FC30031C1828A00703181528FC
:10003000A0076400A10F152820181E28A01C222844
:1000400000002228080083130313831264000800B1
:100050008316860183120130B8006400073038022D
:1000600003184928861083168610831206148316F7
:10007000061083120130A3002C30022001308606C6
:100080008316061083120130A3002C300220B80F13
:100090002D280130B80064000330380203185D28B1
:1000A000033086000330A300E830022086010330CD
:1000B000A300E8300220B80F4B280130B8006400DC
:1000C0000430380203187128033086000130A30081
:1000D0002C30022086010130A3002C300220B80F02
:0800E0005F282B286300722841
:02400E006D3F04
:00000001FF
