:020000040000FA
:100000002828A301A200FF30A207031CA307031C9A
:1000100023280330A100DF300F200328A101E83E90
:10002000A000A109FC30031C1828A00703181528FC
:10003000A0076400A10F152820181E28A01C222844
:1000400000002228080083130313831264000800B1
:1000500083168601831206148316061083128610F7
:100060008316861083120230A300BC3002200130B8
:1000700086068316061002308312860683168610C3
:1000800083120230A300BC3002202B2863004628D4
:02400E006D3F04
:00000001FF
