:020000040000FA
:100000002828A301A200FF30A207031CA307031C9A
:1000100023280330A100DF300F200328A101E83E90
:10002000A000A109FC30031C1828A00703181528FC
:10003000A0076400A10F152820181E28A01C222844
:1000400000002228080083130313831264000800B1
:100050000130B80064000530380203184128061644
:100060008316061283120930A300C4300220061240
:100070008316061283120130A300F4300220B80F59
:0E0080002A280730A300D03002206300452854
:02400E006D3F04
:00000001FF
