:020000040000FA
:020000001628C0
:06000A003030A20031308D
:10001000A1003230A000A00B0B283230A000A10BB1
:100020000B283130A100A20B0B28080083160030EA
:100030008600831286018617052086130520061781
:1000400005200613052086160520861205200616B3
:1000500005200612052086150520861105200615A7
:10006000052006110520861405208610052006149B
:10007000052006100520861405208610052006158B
:100080000520061105208615052086110520061677
:100090000520061205208616052086120520061763
:0600A000052006130520F7
:00000001FF
